{
  "contractName": "Voting",
  "abi": [
    {
      "anonymous": false,
      "inputs": [
        {
          "indexed": true,
          "internalType": "address",
          "name": "voter",
          "type": "address"
        },
        {
          "indexed": false,
          "internalType": "uint256",
          "name": "timestamp",
          "type": "uint256"
        }
      ],
      "name": "Voted",
      "type": "event"
    },
    {
      "inputs": [
        {
          "internalType": "string",
          "name": "_title",
          "type": "string"
        },
        {
          "internalType": "string",
          "name": "_description",
          "type": "string"
        },
        {
          "internalType": "uint256",
          "name": "_startsAt",
          "type": "uint256"
        },
        {
          "internalType": "uint256",
          "name": "_endsAt",
          "type": "uint256"
        }
      ],
      "name": "createPoll",
      "outputs": [],
      "stateMutability": "nonpayable",
      "type": "function"
    },
    {
      "inputs": [
        {
          "internalType": "uint256",
          "name": "id",
          "type": "uint256"
        },
        {
          "internalType": "string",
          "name": "_title",
          "type": "string"
        },
        {
          "internalType": "string",
          "name": "_description",
          "type": "string"
        },
        {
          "internalType": "uint256",
          "name": "_startsAt",
          "type": "uint256"
        },
        {
          "internalType": "uint256",
          "name": "_endsAt",
          "type": "uint256"
        }
      ],
      "name": "updatePoll",
      "outputs": [],
      "stateMutability": "nonpayable",
      "type": "function"
    },
    {
      "inputs": [
        {
          "internalType": "uint256",
          "name": "id",
          "type": "uint256"
        }
      ],
      "name": "deletePoll",
      "outputs": [],
      "stateMutability": "nonpayable",
      "type": "function"
    },
    {
      "inputs": [
        {
          "internalType": "uint256",
          "name": "id",
          "type": "uint256"
        }
      ],
      "name": "getPoll",
      "outputs": [
        {
          "components": [
            {
              "internalType": "uint256",
              "name": "id",
              "type": "uint256"
            },
            {
              "internalType": "string",
              "name": "title",
              "type": "string"
            },
            {
              "internalType": "string",
              "name": "description",
              "type": "string"
            },
            {
              "internalType": "uint256",
              "name": "votes",
              "type": "uint256"
            },
            {
              "internalType": "uint256",
              "name": "contestants",
              "type": "uint256"
            },
            {
              "internalType": "bool",
              "name": "deleted",
              "type": "bool"
            },
            {
              "internalType": "address",
              "name": "director",
              "type": "address"
            },
            {
              "internalType": "uint256",
              "name": "startsAt",
              "type": "uint256"
            },
            {
              "internalType": "uint256",
              "name": "endsAt",
              "type": "uint256"
            },
            {
              "internalType": "uint256",
              "name": "timestamp",
              "type": "uint256"
            },
            {
              "internalType": "address[]",
              "name": "voters",
              "type": "address[]"
            }
          ],
          "internalType": "struct Voting.PollStruct",
          "name": "",
          "type": "tuple"
        }
      ],
      "stateMutability": "view",
      "type": "function"
    },
    {
      "inputs": [],
      "name": "getPolls",
      "outputs": [
        {
          "components": [
            {
              "internalType": "uint256",
              "name": "id",
              "type": "uint256"
            },
            {
              "internalType": "string",
              "name": "title",
              "type": "string"
            },
            {
              "internalType": "string",
              "name": "description",
              "type": "string"
            },
            {
              "internalType": "uint256",
              "name": "votes",
              "type": "uint256"
            },
            {
              "internalType": "uint256",
              "name": "contestants",
              "type": "uint256"
            },
            {
              "internalType": "bool",
              "name": "deleted",
              "type": "bool"
            },
            {
              "internalType": "address",
              "name": "director",
              "type": "address"
            },
            {
              "internalType": "uint256",
              "name": "startsAt",
              "type": "uint256"
            },
            {
              "internalType": "uint256",
              "name": "endsAt",
              "type": "uint256"
            },
            {
              "internalType": "uint256",
              "name": "timestamp",
              "type": "uint256"
            },
            {
              "internalType": "address[]",
              "name": "voters",
              "type": "address[]"
            }
          ],
          "internalType": "struct Voting.PollStruct[]",
          "name": "Polls",
          "type": "tuple[]"
        }
      ],
      "stateMutability": "view",
      "type": "function"
    },
    {
      "inputs": [
        {
          "internalType": "uint256",
          "name": "id",
          "type": "uint256"
        },
        {
          "internalType": "string",
          "name": "_name",
          "type": "string"
        }
      ],
      "name": "contest",
      "outputs": [],
      "stateMutability": "nonpayable",
      "type": "function"
    },
    {
      "inputs": [
        {
          "internalType": "uint256",
          "name": "id",
          "type": "uint256"
        },
        {
          "internalType": "uint256",
          "name": "cid",
          "type": "uint256"
        }
      ],
      "name": "getContest",
      "outputs": [
        {
          "components": [
            {
              "internalType": "uint256",
              "name": "id",
              "type": "uint256"
            },
            {
              "internalType": "string",
              "name": "name",
              "type": "string"
            },
            {
              "internalType": "address",
              "name": "voter",
              "type": "address"
            },
            {
              "internalType": "uint256",
              "name": "votes",
              "type": "uint256"
            },
            {
              "internalType": "address[]",
              "name": "voters",
              "type": "address[]"
            }
          ],
          "internalType": "struct Voting.ContestantStruct",
          "name": "",
          "type": "tuple"
        }
      ],
      "stateMutability": "view",
      "type": "function"
    },
    {
      "inputs": [
        {
          "internalType": "uint256",
          "name": "id",
          "type": "uint256"
        }
      ],
      "name": "getContestants",
      "outputs": [
        {
          "components": [
            {
              "internalType": "uint256",
              "name": "id",
              "type": "uint256"
            },
            {
              "internalType": "string",
              "name": "name",
              "type": "string"
            },
            {
              "internalType": "address",
              "name": "voter",
              "type": "address"
            },
            {
              "internalType": "uint256",
              "name": "votes",
              "type": "uint256"
            },
            {
              "internalType": "address[]",
              "name": "voters",
              "type": "address[]"
            }
          ],
          "internalType": "struct Voting.ContestantStruct[]",
          "name": "Contestants",
          "type": "tuple[]"
        }
      ],
      "stateMutability": "view",
      "type": "function"
    },
    {
      "inputs": [
        {
          "internalType": "uint256",
          "name": "id",
          "type": "uint256"
        },
        {
          "internalType": "uint256",
          "name": "cid",
          "type": "uint256"
        }
      ],
      "name": "vote",
      "outputs": [],
      "stateMutability": "nonpayable",
      "type": "function"
    }
  ],
  "bytecode": "0x608060405234801561000f575f80fd5b506131ac8061001d5f395ff3fe608060405234801561000f575f80fd5b5060043610610091575f3560e01c80631f35b51d116100645780631f35b51d1461011b5780637aad3cd9146101375780639976ef9b14610167578063b384abef14610183578063cee9dc451461019f57610091565b806306aceddc146100955780631112bead146100b1578063120fe89b146100cd5780631a8cbcaa146100eb575b5f80fd5b6100af60048036038101906100aa9190611e86565b6101cf565b005b6100cb60048036038101906100c69190611f22565b6104a3565b005b6100d561079f565b6040516100e29190612310565b60405180910390f35b61010560048036038101906101009190612330565b610b4a565b6040516101129190612455565b60405180910390f35b61013560048036038101906101309190612330565b610dcc565b005b610151600480360381019061014c9190612475565b610f51565b60405161015e919061252d565b60405180910390f35b610181600480360381019061017c919061254d565b61110f565b005b61019d60048036038101906101989190612475565b611447565b005b6101b960048036038101906101b49190612330565b61188a565b6040516101c691906126dc565b60405180910390f35b5f845111610212576040517f08c379a000000000000000000000000000000000000000000000000000000000815260040161020990612756565b60405180910390fd5b5f835111610255576040517f08c379a000000000000000000000000000000000000000000000000000000000815260040161024c906127be565b60405180910390fd5b5f8211610297576040517f08c379a000000000000000000000000000000000000000000000000000000000815260040161028e9061284c565b60405180910390fd5b8181116102d9576040517f08c379a00000000000000000000000000000000000000000000000000000000081526004016102d0906128da565b60405180910390fd5b6102e25f611b79565b6102ea611bb8565b6102f35f611b8d565b815f018181525050848160200181905250838160400181905250338160c0019073ffffffffffffffffffffffffffffffffffffffff16908173ffffffffffffffffffffffffffffffffffffffff1681525050828160e00181815250508181610100018181525050610362611b99565b816101200181815250508060035f835f015181526020019081526020015f205f820151815f0155602082015181600101908161039e9190612af2565b5060408201518160020190816103b49190612af2565b50606082015181600301556080820151816004015560a0820151816005015f6101000a81548160ff02191690831515021790555060c08201518160050160016101000a81548173ffffffffffffffffffffffffffffffffffffffff021916908373ffffffffffffffffffffffffffffffffffffffff16021790555060e082015181600601556101008201518160070155610120820151816008015561014082015181600901908051906020019061046c929190611c22565b50905050600160025f835f015181526020019081526020015f205f6101000a81548160ff0219169083151502179055505050505050565b60025f8681526020019081526020015f205f9054906101000a900460ff16610500576040517f08c379a00000000000000000000000000000000000000000000000000000000081526004016104f790612c0b565b60405180910390fd5b3373ffffffffffffffffffffffffffffffffffffffff1660035f8781526020019081526020015f2060050160019054906101000a900473ffffffffffffffffffffffffffffffffffffffff1673ffffffffffffffffffffffffffffffffffffffff16146105a2576040517f08c379a000000000000000000000000000000000000000000000000000000000815260040161059990612c73565b60405180910390fd5b5f8451116105e5576040517f08c379a00000000000000000000000000000000000000000000000000000000081526004016105dc90612756565b60405180910390fd5b5f835111610628576040517f08c379a000000000000000000000000000000000000000000000000000000000815260040161061f906127be565b60405180910390fd5b60035f8681526020019081526020015f206005015f9054906101000a900460ff1615610689576040517f08c379a000000000000000000000000000000000000000000000000000000000815260040161068090612cdb565b60405180910390fd5b600160035f8781526020019081526020015f2060030154106106e0576040517f08c379a00000000000000000000000000000000000000000000000000000000081526004016106d790612d43565b60405180910390fd5b818111610722576040517f08c379a0000000000000000000000000000000000000000000000000000000008152600401610719906128da565b60405180910390fd5b8360035f8781526020019081526020015f2060010190816107439190612af2565b508260035f8781526020019081526020015f2060020190816107659190612af2565b508160035f8781526020019081526020015f20600601819055508060035f8781526020019081526020015f20600701819055505050505050565b60605f80600190505b6107b15f611b8d565b81116107fe5760035f8281526020019081526020015f206005015f9054906101000a900460ff166107eb5781806107e790612d8e565b9250505b80806107f690612d8e565b9150506107a8565b508067ffffffffffffffff81111561081957610818611d2f565b5b60405190808252806020026020018201604052801561085257816020015b61083f611bb8565b8152602001906001900390816108375790505b5091505f80600190505b6108655f611b8d565b811015610b445760035f8281526020019081526020015f206005015f9054906101000a900460ff16610b315760035f8281526020019081526020015f20604051806101600160405290815f82015481526020016001820180546108c790612925565b80601f01602080910402602001604051908101604052809291908181526020018280546108f390612925565b801561093e5780601f106109155761010080835404028352916020019161093e565b820191905f5260205f20905b81548152906001019060200180831161092157829003601f168201915b5050505050815260200160028201805461095790612925565b80601f016020809104026020016040519081016040528092919081815260200182805461098390612925565b80156109ce5780601f106109a5576101008083540402835291602001916109ce565b820191905f5260205f20905b8154815290600101906020018083116109b157829003601f168201915b505050505081526020016003820154815260200160048201548152602001600582015f9054906101000a900460ff161515151581526020016005820160019054906101000a900473ffffffffffffffffffffffffffffffffffffffff1673ffffffffffffffffffffffffffffffffffffffff1673ffffffffffffffffffffffffffffffffffffffff16815260200160068201548152602001600782015481526020016008820154815260200160098201805480602002602001604051908101604052809291908181526020018280548015610afb57602002820191905f5260205f20905b815f9054906101000a900473ffffffffffffffffffffffffffffffffffffffff1673ffffffffffffffffffffffffffffffffffffffff1681526020019060010190808311610ab2575b505050505081525050848381518110610b1757610b16612dd5565b5b60200260200101819052508180610b2d90612d8e565b9250505b8080610b3c90612d8e565b91505061085c565b50505090565b610b52611bb8565b60035f8381526020019081526020015f20604051806101600160405290815f8201548152602001600182018054610b8890612925565b80601f0160208091040260200160405190810160405280929190818152602001828054610bb490612925565b8015610bff5780601f10610bd657610100808354040283529160200191610bff565b820191905f5260205f20905b815481529060010190602001808311610be257829003601f168201915b50505050508152602001600282018054610c1890612925565b80601f0160208091040260200160405190810160405280929190818152602001828054610c4490612925565b8015610c8f5780601f10610c6657610100808354040283529160200191610c8f565b820191905f5260205f20905b815481529060010190602001808311610c7257829003601f168201915b505050505081526020016003820154815260200160048201548152602001600582015f9054906101000a900460ff161515151581526020016005820160019054906101000a900473ffffffffffffffffffffffffffffffffffffffff1673ffffffffffffffffffffffffffffffffffffffff1673ffffffffffffffffffffffffffffffffffffffff16815260200160068201548152602001600782015481526020016008820154815260200160098201805480602002602001604051908101604052809291908181526020018280548015610dbc57602002820191905f5260205f20905b815f9054906101000a900473ffffffffffffffffffffffffffffffffffffffff1673ffffffffffffffffffffffffffffffffffffffff1681526020019060010190808311610d73575b5050505050815250509050919050565b60025f8281526020019081526020015f205f9054906101000a900460ff16610e29576040517f08c379a0000000000000000000000000000000000000000000000000000000008152600401610e2090612c0b565b60405180910390fd5b3373ffffffffffffffffffffffffffffffffffffffff1660035f8381526020019081526020015f2060050160019054906101000a900473ffffffffffffffffffffffffffffffffffffffff1673ffffffffffffffffffffffffffffffffffffffff1614610ecb576040517f08c379a0000000000000000000000000000000000000000000000000000000008152600401610ec290612e4c565b60405180910390fd5b600160035f8381526020019081526020015f206003015411610f22576040517f08c379a0000000000000000000000000000000000000000000000000000000008152600401610f1990612d43565b60405180910390fd5b600160035f8381526020019081526020015f206005015f6101000a81548160ff02191690831515021790555050565b610f59611ca9565b60065f8481526020019081526020015f205f8381526020019081526020015f206040518060a00160405290815f8201548152602001600182018054610f9d90612925565b80601f0160208091040260200160405190810160405280929190818152602001828054610fc990612925565b80156110145780601f10610feb57610100808354040283529160200191611014565b820191905f5260205f20905b815481529060010190602001808311610ff757829003601f168201915b50505050508152602001600282015f9054906101000a900473ffffffffffffffffffffffffffffffffffffffff1673ffffffffffffffffffffffffffffffffffffffff1673ffffffffffffffffffffffffffffffffffffffff16815260200160038201548152602001600482018054806020026020016040519081016040528092919081815260200182805480156110fe57602002820191905f5260205f20905b815f9054906101000a900473ffffffffffffffffffffffffffffffffffffffff1673ffffffffffffffffffffffffffffffffffffffff16815260200190600101908083116110b5575b505050505081525050905092915050565b60025f8381526020019081526020015f205f9054906101000a900460ff1661116c576040517f08c379a000000000000000000000000000000000000000000000000000000000815260040161116390612c0b565b60405180910390fd5b5f8151116111af576040517f08c379a00000000000000000000000000000000000000000000000000000000081526004016111a690612eb4565b60405180910390fd5b600160035f8481526020019081526020015f206003015410611206576040517f08c379a00000000000000000000000000000000000000000000000000000000081526004016111fd90612d43565b60405180910390fd5b60055f8381526020019081526020015f205f3373ffffffffffffffffffffffffffffffffffffffff1673ffffffffffffffffffffffffffffffffffffffff1681526020019081526020015f205f9054906101000a900460ff1661129e576040517f08c379a000000000000000000000000000000000000000000000000000000000815260040161129590612f1c565b60405180910390fd5b6112a86001611b79565b6112b0611ca9565b81816020018190525033816040019073ffffffffffffffffffffffffffffffffffffffff16908173ffffffffffffffffffffffffffffffffffffffff16815250506112fb6001611b8d565b815f0181815250508060065f8581526020019081526020015f205f835f015181526020019081526020015f205f820151815f015560208201518160010190816113449190612af2565b506040820151816002015f6101000a81548173ffffffffffffffffffffffffffffffffffffffff021916908373ffffffffffffffffffffffffffffffffffffffff1602179055506060820151816003015560808201518160040190805190602001906113b1929190611c22565b50905050600160055f8581526020019081526020015f205f3373ffffffffffffffffffffffffffffffffffffffff1673ffffffffffffffffffffffffffffffffffffffff1681526020019081526020015f205f6101000a81548160ff02191690831515021790555060035f8481526020019081526020015f206004015f81548092919061143d90612d8e565b9190505550505050565b60025f8381526020019081526020015f205f9054906101000a900460ff166114a4576040517f08c379a000000000000000000000000000000000000000000000000000000000815260040161149b90612c0b565b60405180910390fd5b60045f8381526020019081526020015f205f3373ffffffffffffffffffffffffffffffffffffffff1673ffffffffffffffffffffffffffffffffffffffff1681526020019081526020015f205f9054906101000a900460ff161561153d576040517f08c379a000000000000000000000000000000000000000000000000000000000815260040161153490612f84565b60405180910390fd5b60035f8381526020019081526020015f206005015f9054906101000a900460ff161561159e576040517f08c379a000000000000000000000000000000000000000000000000000000000815260040161159590612fec565b60405180910390fd5b600160035f8481526020019081526020015f2060040154116115f5576040517f08c379a00000000000000000000000000000000000000000000000000000000081526004016115ec90613054565b60405180910390fd5b60035f8381526020019081526020015f2060060154611612611b99565b1015801561163a575060035f8381526020019081526020015f2060070154611638611b99565b105b611679576040517f08c379a0000000000000000000000000000000000000000000000000000000008152600401611670906130bc565b60405180910390fd5b60035f8381526020019081526020015f206003015f81548092919061169d90612d8e565b919050555060035f8381526020019081526020015f2060090133908060018154018082558091505060019003905f5260205f20015f9091909190916101000a81548173ffffffffffffffffffffffffffffffffffffffff021916908373ffffffffffffffffffffffffffffffffffffffff16021790555060065f8381526020019081526020015f205f8281526020019081526020015f206003015f81548092919061174790612d8e565b919050555060065f8381526020019081526020015f205f8281526020019081526020015f2060040133908060018154018082558091505060019003905f5260205f20015f9091909190916101000a81548173ffffffffffffffffffffffffffffffffffffffff021916908373ffffffffffffffffffffffffffffffffffffffff160217905550600160045f8481526020019081526020015f205f3373ffffffffffffffffffffffffffffffffffffffff1673ffffffffffffffffffffffffffffffffffffffff1681526020019081526020015f205f6101000a81548160ff0219169083151502179055503373ffffffffffffffffffffffffffffffffffffffff167f4d99b957a2bc29a30ebd96a7be8e68fe50a3c701db28a91436490b7d53870ca4611871611b99565b60405161187e91906130e9565b60405180910390a25050565b60605f80600190505b61189d6001611b8d565b81116118ee578060065f8681526020019081526020015f205f8381526020019081526020015f205f0154036118db5781806118d790612d8e565b9250505b80806118e690612d8e565b915050611893565b508067ffffffffffffffff81111561190957611908611d2f565b5b60405190808252806020026020018201604052801561194257816020015b61192f611ca9565b8152602001906001900390816119275790505b5091505f80600190505b6119566001611b8d565b8111611b71578060065f8781526020019081526020015f205f8381526020019081526020015f205f015403611b5e5760065f8681526020019081526020015f205f8281526020019081526020015f206040518060a00160405290815f82015481526020016001820180546119c990612925565b80601f01602080910402602001604051908101604052809291908181526020018280546119f590612925565b8015611a405780601f10611a1757610100808354040283529160200191611a40565b820191905f5260205f20905b815481529060010190602001808311611a2357829003601f168201915b50505050508152602001600282015f9054906101000a900473ffffffffffffffffffffffffffffffffffffffff1673ffffffffffffffffffffffffffffffffffffffff1673ffffffffffffffffffffffffffffffffffffffff1681526020016003820154815260200160048201805480602002602001604051908101604052809291908181526020018280548015611b2a57602002820191905f5260205f20905b815f9054906101000a900473ffffffffffffffffffffffffffffffffffffffff1673ffffffffffffffffffffffffffffffffffffffff1681526020019060010190808311611ae1575b505050505081525050848380611b3f90612d8e565b945081518110611b5257611b51612dd5565b5b60200260200101819052505b8080611b6990612d8e565b91505061194c565b505050919050565b6001815f015f828254019250508190555050565b5f815f01549050919050565b5f6103e88042611ba99190613102565b611bb39190613143565b905090565b6040518061016001604052805f815260200160608152602001606081526020015f81526020015f81526020015f151581526020015f73ffffffffffffffffffffffffffffffffffffffff1681526020015f81526020015f81526020015f8152602001606081525090565b828054828255905f5260205f20908101928215611c98579160200282015b82811115611c97578251825f6101000a81548173ffffffffffffffffffffffffffffffffffffffff021916908373ffffffffffffffffffffffffffffffffffffffff16021790555091602001919060010190611c40565b5b509050611ca59190611ceb565b5090565b6040518060a001604052805f8152602001606081526020015f73ffffffffffffffffffffffffffffffffffffffff1681526020015f8152602001606081525090565b5b80821115611d02575f815f905550600101611cec565b5090565b5f604051905090565b5f80fd5b5f80fd5b5f80fd5b5f80fd5b5f601f19601f8301169050919050565b7f4e487b71000000000000000000000000000000000000000000000000000000005f52604160045260245ffd5b611d6582611d1f565b810181811067ffffffffffffffff82111715611d8457611d83611d2f565b5b80604052505050565b5f611d96611d06565b9050611da28282611d5c565b919050565b5f67ffffffffffffffff821115611dc157611dc0611d2f565b5b611dca82611d1f565b9050602081019050919050565b828183375f83830152505050565b5f611df7611df284611da7565b611d8d565b905082815260208101848484011115611e1357611e12611d1b565b5b611e1e848285611dd7565b509392505050565b5f82601f830112611e3a57611e39611d17565b5b8135611e4a848260208601611de5565b91505092915050565b5f819050919050565b611e6581611e53565b8114611e6f575f80fd5b50565b5f81359050611e8081611e5c565b92915050565b5f805f8060808587031215611e9e57611e9d611d0f565b5b5f85013567ffffffffffffffff811115611ebb57611eba611d13565b5b611ec787828801611e26565b945050602085013567ffffffffffffffff811115611ee857611ee7611d13565b5b611ef487828801611e26565b9350506040611f0587828801611e72565b9250506060611f1687828801611e72565b91505092959194509250565b5f805f805f60a08688031215611f3b57611f3a611d0f565b5b5f611f4888828901611e72565b955050602086013567ffffffffffffffff811115611f6957611f68611d13565b5b611f7588828901611e26565b945050604086013567ffffffffffffffff811115611f9657611f95611d13565b5b611fa288828901611e26565b9350506060611fb388828901611e72565b9250506080611fc488828901611e72565b9150509295509295909350565b5f81519050919050565b5f82825260208201905092915050565b5f819050602082019050919050565b61200381611e53565b82525050565b5f81519050919050565b5f82825260208201905092915050565b5f5b83811015612040578082015181840152602081019050612025565b5f8484015250505050565b5f61205582612009565b61205f8185612013565b935061206f818560208601612023565b61207881611d1f565b840191505092915050565b5f8115159050919050565b61209781612083565b82525050565b5f73ffffffffffffffffffffffffffffffffffffffff82169050919050565b5f6120c68261209d565b9050919050565b6120d6816120bc565b82525050565b5f81519050919050565b5f82825260208201905092915050565b5f819050602082019050919050565b5f61211083836120cd565b60208301905092915050565b5f602082019050919050565b5f612132826120dc565b61213c81856120e6565b9350612147836120f6565b805f5b8381101561217757815161215e8882612105565b97506121698361211c565b92505060018101905061214a565b5085935050505092915050565b5f61016083015f83015161219a5f860182611ffa565b50602083015184820360208601526121b2828261204b565b915050604083015184820360408601526121cc828261204b565b91505060608301516121e16060860182611ffa565b5060808301516121f46080860182611ffa565b5060a083015161220760a086018261208e565b5060c083015161221a60c08601826120cd565b5060e083015161222d60e0860182611ffa565b50610100830151612242610100860182611ffa565b50610120830151612257610120860182611ffa565b506101408301518482036101408601526122718282612128565b9150508091505092915050565b5f6122898383612184565b905092915050565b5f602082019050919050565b5f6122a782611fd1565b6122b18185611fdb565b9350836020820285016122c385611feb565b805f5b858110156122fe57848403895281516122df858261227e565b94506122ea83612291565b925060208a019950506001810190506122c6565b50829750879550505050505092915050565b5f6020820190508181035f830152612328818461229d565b905092915050565b5f6020828403121561234557612344611d0f565b5b5f61235284828501611e72565b91505092915050565b5f61016083015f8301516123715f860182611ffa565b5060208301518482036020860152612389828261204b565b915050604083015184820360408601526123a3828261204b565b91505060608301516123b86060860182611ffa565b5060808301516123cb6080860182611ffa565b5060a08301516123de60a086018261208e565b5060c08301516123f160c08601826120cd565b5060e083015161240460e0860182611ffa565b50610100830151612419610100860182611ffa565b5061012083015161242e610120860182611ffa565b506101408301518482036101408601526124488282612128565b9150508091505092915050565b5f6020820190508181035f83015261246d818461235b565b905092915050565b5f806040838503121561248b5761248a611d0f565b5b5f61249885828601611e72565b92505060206124a985828601611e72565b9150509250929050565b5f60a083015f8301516124c85f860182611ffa565b50602083015184820360208601526124e0828261204b565b91505060408301516124f560408601826120cd565b5060608301516125086060860182611ffa565b50608083015184820360808601526125208282612128565b9150508091505092915050565b5f6020820190508181035f83015261254581846124b3565b905092915050565b5f806040838503121561256357612562611d0f565b5b5f61257085828601611e72565b925050602083013567ffffffffffffffff81111561259157612590611d13565b5b61259d85828601611e26565b9150509250929050565b5f81519050919050565b5f82825260208201905092915050565b5f819050602082019050919050565b5f60a083015f8301516125e55f860182611ffa565b50602083015184820360208601526125fd828261204b565b915050604083015161261260408601826120cd565b5060608301516126256060860182611ffa565b506080830151848203608086015261263d8282612128565b9150508091505092915050565b5f61265583836125d0565b905092915050565b5f602082019050919050565b5f612673826125a7565b61267d81856125b1565b93508360208202850161268f856125c1565b805f5b858110156126ca57848403895281516126ab858261264a565b94506126b68361265d565b925060208a01995050600181019050612692565b50829750879550505050505092915050565b5f6020820190508181035f8301526126f48184612669565b905092915050565b5f82825260208201905092915050565b7f5469746c652063616e6e6f7420626520656d70747900000000000000000000005f82015250565b5f6127406015836126fc565b915061274b8261270c565b602082019050919050565b5f6020820190508181035f83015261276d81612734565b9050919050565b7f4465736372697074696f6e2063616e6e6f7420626520656d70747900000000005f82015250565b5f6127a8601b836126fc565b91506127b382612774565b602082019050919050565b5f6020820190508181035f8301526127d58161279c565b9050919050565b7f53746172742064617465206d7573742062652067726561746572207468616e205f8201527f3000000000000000000000000000000000000000000000000000000000000000602082015250565b5f6128366021836126fc565b9150612841826127dc565b604082019050919050565b5f6020820190508181035f8301526128638161282a565b9050919050565b7f456e642064617465206d7573742062652067726561746572207468616e2073745f8201527f6172742064617465000000000000000000000000000000000000000000000000602082015250565b5f6128c46028836126fc565b91506128cf8261286a565b604082019050919050565b5f6020820190508181035f8301526128f1816128b8565b9050919050565b7f4e487b71000000000000000000000000000000000000000000000000000000005f52602260045260245ffd5b5f600282049050600182168061293c57607f821691505b60208210810361294f5761294e6128f8565b5b50919050565b5f819050815f5260205f209050919050565b5f6020601f8301049050919050565b5f82821b905092915050565b5f600883026129b17fffffffffffffffffffffffffffffffffffffffffffffffffffffffffffffffff82612976565b6129bb8683612976565b95508019841693508086168417925050509392505050565b5f819050919050565b5f6129f66129f16129ec84611e53565b6129d3565b611e53565b9050919050565b5f819050919050565b612a0f836129dc565b612a23612a1b826129fd565b848454612982565b825550505050565b5f90565b612a37612a2b565b612a42818484612a06565b505050565b5b81811015612a6557612a5a5f82612a2f565b600181019050612a48565b5050565b601f821115612aaa57612a7b81612955565b612a8484612967565b81016020851015612a93578190505b612aa7612a9f85612967565b830182612a47565b50505b505050565b5f82821c905092915050565b5f612aca5f1984600802612aaf565b1980831691505092915050565b5f612ae28383612abb565b9150826002028217905092915050565b612afb82612009565b67ffffffffffffffff811115612b1457612b13611d2f565b5b612b1e8254612925565b612b29828285612a69565b5f60209050601f831160018114612b5a575f8415612b48578287015190505b612b528582612ad7565b865550612bb9565b601f198416612b6886612955565b5f5b82811015612b8f57848901518255600182019150602085019450602081019050612b6a565b86831015612bac5784890151612ba8601f891682612abb565b8355505b6001600288020188555050505b505050505050565b7f506f6c6c206e6f7420666f756e640000000000000000000000000000000000005f82015250565b5f612bf5600e836126fc565b9150612c0082612bc1565b602082019050919050565b5f6020820190508181035f830152612c2281612be9565b9050919050565b7f596f7520617265206e6f7420617574686f72697a6564000000000000000000005f82015250565b5f612c5d6016836126fc565b9150612c6882612c29565b602082019050919050565b5f6020820190508181035f830152612c8a81612c51565b9050919050565b7f506f6c6c696e6720616c72656164792064656c657465640000000000000000005f82015250565b5f612cc56017836126fc565b9150612cd082612c91565b602082019050919050565b5f6020820190508181035f830152612cf281612cb9565b9050919050565b7f506f6c6c2068617320766f74657320616c7265616479000000000000000000005f82015250565b5f612d2d6016836126fc565b9150612d3882612cf9565b602082019050919050565b5f6020820190508181035f830152612d5a81612d21565b9050919050565b7f4e487b71000000000000000000000000000000000000000000000000000000005f52601160045260245ffd5b5f612d9882611e53565b91507fffffffffffffffffffffffffffffffffffffffffffffffffffffffffffffffff8203612dca57612dc9612d61565b5b600182019050919050565b7f4e487b71000000000000000000000000000000000000000000000000000000005f52603260045260245ffd5b7f556e617574686f72697a656420557365720000000000000000000000000000005f82015250565b5f612e366011836126fc565b9150612e4182612e02565b602082019050919050565b5f6020820190508181035f830152612e6381612e2a565b9050919050565b7f6e616d652063616e6e6f7420626520656d7074790000000000000000000000005f82015250565b5f612e9e6014836126fc565b9150612ea982612e6a565b602082019050919050565b5f6020820190508181035f830152612ecb81612e92565b9050919050565b7f416c726561647920636f6e7465737465640000000000000000000000000000005f82015250565b5f612f066011836126fc565b9150612f1182612ed2565b602082019050919050565b5f6020820190508181035f830152612f3381612efa565b9050919050565b7f416c726561647920766f746564000000000000000000000000000000000000005f82015250565b5f612f6e600d836126fc565b9150612f7982612f3a565b602082019050919050565b5f6020820190508181035f830152612f9b81612f62565b9050919050565b7f506f6c6c696e67206e6f7420617661696c61626c6500000000000000000000005f82015250565b5f612fd66015836126fc565b9150612fe182612fa2565b602082019050919050565b5f6020820190508181035f83015261300381612fca565b9050919050565b7f4e6f7420656e6f75676820636f6e74657374616e7473000000000000000000005f82015250565b5f61303e6016836126fc565b91506130498261300a565b602082019050919050565b5f6020820190508181035f83015261306b81613032565b9050919050565b7f566f74696e67206d75737420626520696e2073657373696f6e000000000000005f82015250565b5f6130a66019836126fc565b91506130b182613072565b602082019050919050565b5f6020820190508181035f8301526130d38161309a565b9050919050565b6130e381611e53565b82525050565b5f6020820190506130fc5f8301846130da565b92915050565b5f61310c82611e53565b915061311783611e53565b925082820261312581611e53565b9150828204841483151761313c5761313b612d61565b5b5092915050565b5f61314d82611e53565b915061315883611e53565b92508282019050808211156131705761316f612d61565b5b9291505056fea26469706673582212206f27c8c39f2002d3c85446ff90340e9459fc9713261a6c1a732a1e3fc707125e64736f6c63430008150033",
  "immutableReferences": {},
  "source": "// SPDX-License-Identifier: SEE LICENSE IN LICENSE\npragma solidity 0.8.21;\nimport \"@openzeppelin/contracts/utils/Counters.sol\";\n\ncontract Voting {\n    using Counters for Counters.Counter;\n    Counters.Counter private totalPolls;\n    Counters.Counter private totalContestants;\n\n    event Voted(address indexed voter, uint timestamp);\n\n    struct PollStruct {\n        uint id;\n        string title;\n        string description;\n        uint votes;\n        uint contestants;\n        bool deleted;\n        address director;\n        uint startsAt;\n        uint endsAt;\n        uint timestamp;\n        address[] voters;\n    }\n\n    struct ContestantStruct {\n        uint id;\n        string name;\n        address voter;\n        uint votes;\n        address[] voters;\n    }\n\n    mapping(uint => bool) pollExist;\n    mapping(uint => PollStruct) polls; //sare polls jo portal pe listed hia\n    mapping(uint => mapping(address => bool)) voted;\n    mapping(uint => mapping(address => bool)) contested;\n    mapping(uint => mapping(uint => ContestantStruct)) contestants; //kis poll mai konsa konsa address contestant hai\n\n    function createPoll(\n        string memory _title,\n        string memory _description,\n        uint _startsAt,\n        uint _endsAt\n    ) public {\n        require(bytes(_title).length > 0, \"Title cannot be empty\");\n        require(bytes(_description).length > 0, \"Description cannot be empty\");\n        require(_startsAt > 0, \"Start date must be greater than 0\");\n        require(\n            _endsAt > _startsAt,\n            \"End date must be greater than start date\"\n        );\n\n        totalPolls.increment();\n\n        PollStruct memory poll;\n        poll.id = totalPolls.current();\n        poll.title = _title;\n        poll.description = _description;\n        poll.director = msg.sender;\n        poll.startsAt = _startsAt;\n        poll.endsAt = _endsAt;\n        poll.timestamp = currentTime();\n\n        polls[poll.id] = poll;\n        pollExist[poll.id] = true;\n    }\n\n    function updatePoll(\n        uint id,\n        string memory _title,\n        string memory _description,\n        uint _startsAt,\n        uint _endsAt\n    ) public {\n        require(pollExist[id], \"Poll not found\");\n        require(polls[id].director == msg.sender, \"You are not authorized\");\n        require(bytes(_title).length > 0, \"Title cannot be empty\");\n        require(bytes(_description).length > 0, \"Description cannot be empty\");\n        require(!polls[id].deleted, \"Polling already deleted\");\n        require(polls[id].votes < 1, \"Poll has votes already\");\n        require(\n            _endsAt > _startsAt,\n            \"End date must be greater than start date\"\n        );\n\n        polls[id].title = _title;\n        polls[id].description = _description;\n        polls[id].startsAt = _startsAt;\n        polls[id].endsAt = _endsAt;\n    }\n\n    function deletePoll(uint id) public {\n        require(pollExist[id], \"Poll not found\");\n        require(polls[id].director == msg.sender, \"Unauthorized User\");\n        require(polls[id].votes > 1, \"Poll has votes already\");\n        polls[id].deleted = true;\n    }\n\n    function getPoll(uint id) public view returns (PollStruct memory) {\n        return polls[id];\n    }\n\n    function getPolls() public view returns (PollStruct[] memory Polls) {\n        uint availablePoll;\n        for (uint i = 1; i <= totalPolls.current(); i++) {\n            if (!polls[i].deleted) availablePoll++;\n        }\n\n        Polls = new PollStruct[](availablePoll);\n        uint index;\n\n        for (uint i = 1; i < totalPolls.current(); i++) {\n            if (!polls[i].deleted) {\n                Polls[index] = polls[i];\n                index++;\n            }\n        }\n    }\n\n    function contest(uint id, string memory _name) public {\n        require(pollExist[id], \"Poll not found\");\n        require(bytes(_name).length > 0, \"name cannot be empty\");\n        require(polls[id].votes < 1, \"Poll has votes already\");\n        require(contested[id][msg.sender], \"Already contested\");\n\n        totalContestants.increment();\n\n        ContestantStruct memory contestant;\n        contestant.name = _name;\n        contestant.voter = msg.sender;\n        contestant.id = totalContestants.current();\n\n        contestants[id][contestant.id] = contestant;\n        contested[id][msg.sender] = true;\n        polls[id].contestants++;\n    }\n\n    function getContest(\n        uint id,\n        uint cid\n    ) public view returns (ContestantStruct memory) {\n        return contestants[id][cid];\n    }\n\n    function getContestants(\n        uint id\n    ) public view returns (ContestantStruct[] memory Contestants) {\n        uint available;\n        for (uint i = 1; i <= totalContestants.current(); i++) {\n            if (contestants[id][i].id == i) available++;\n        }\n\n        Contestants = new ContestantStruct[](available);\n        uint index;\n\n        for (uint i = 1; i <= totalContestants.current(); i++) {\n            if (contestants[id][i].id == i) {\n                Contestants[index++] = contestants[id][i];\n            }\n        }\n    }\n\n    function vote(uint id, uint cid) public {\n        require(pollExist[id], \"Poll not found\");\n        require(!voted[id][msg.sender], \"Already voted\");\n        require(!polls[id].deleted, \"Polling not available\");\n        require(polls[id].contestants > 1, \"Not enough contestants\");\n        require(\n            currentTime() >= polls[id].startsAt &&\n                currentTime() < polls[id].endsAt,\n            \"Voting must be in session\"\n        );\n\n        polls[id].votes++;\n        polls[id].voters.push(msg.sender);\n\n        contestants[id][cid].votes++;\n        contestants[id][cid].voters.push(msg.sender);\n        voted[id][msg.sender] = true;\n\n        emit Voted(msg.sender, currentTime());\n    }\n\n    function currentTime() internal view returns (uint256) {\n        return (block.timestamp * 1000) + 1000;\n    }\n}\n",
  "sourcePath": "/home/sanskar/Desktop/VotingApp/contracts/Voting.sol",
  "compiler": {
    "name": "solc",
    "version": "0.8.21+commit.d9974bed.Emscripten.clang"
  },
  "schemaVersion": "3.4.16",
  "updatedAt": "2024-04-15T10:08:10.263Z",
  "devdoc": {
    "kind": "dev",
    "methods": {},
    "version": 1
  },
  "userdoc": {
    "kind": "user",
    "methods": {},
    "version": 1
  }
}